:020000040800F2
:100000000050002071090008B5090008B509000872
:10001000B5090008B5090008B5090008000000008E
:10002000000000000000000000000000B50900080A
:10003000B509000800000000B5090008B50900086E
:10004000B5090008B5090008B5090008B509000898
:10005000B5090008B5090008B5090008B509000888
:10006000B5090008B5090008B5090008B509000878
:10007000B5090008B5090008B5090008B509000868
:10008000B5090008B5090008411D0008B5090008B8
:10009000B5090008B5090008B5090008B509000848
:1000A000B5090008B5090008B5090008B509000838
:1000B0002D1E0008C11F0008C11D0008B509000859
:1000C000B5090008B5090008B5090008B509000818
:1000D000B5090008B5090008B5090008B509000808
:1000E000B5090008B5090008B509000800000000BE
:1000F0000000000000000000000000000000000000
:1001000000000000000000005FF808F110B5054C89
:10011000237833B9044B13B10448AFF300800123B3
:10012000237010BD68040020000000008036000825
:1001300008B5034B1BB103490348AFF3008008BD6A
:10014000000000006C0400208036000880B500AF7D
:10015000154B1B68144A43F001031360124B5A6895
:100160001149124B13404B600F4B1B680E4A23F092
:10017000847323F4803313600B4B1B680A4A23F407
:1001800080231360084B5B68074A23F4FE03536027
:10019000054B4FF41F029A6000F078F8044B4FF0C3
:1001A00000629A6000BF80BD001002400000FFF8AE
:1001B00000ED00E080B485B000AF0023FB600023B9
:1001C000BB6000237B602C4B5B6803F00C03FB607F
:1001D000FB68042B07D0082B09D0002B33D1274B09
:1001E000274A1A6033E0254B254A1A602FE0224B3C
:1001F0005B6803F47013BB601F4B5B6803F48033D0
:100200007B60BB689B0C0233BB607B68002B06D114
:10021000BB681C4A02FB03F3184A136017E0164B35
:100220005B6803F40033002B06D0BB68154A02FB61
:1002300003F3124A13600AE0BB68114A02FB03F39E
:100240000E4A136003E00D4B0D4A1A6000BF0A4BC3
:100250005B681B0903F00F030B4AD35CDBB2FB6046
:10026000064B1A68FB6822FA03F3044A136000BFC6
:100270001437BD4680BC70470010024000000020CB
:1002800000127A0000093D000400002080B500AF94
:1002900000F002F800BF80BD80B483B000AF00233F
:1002A0007B6000233B603A4B1B68394A43F4803340
:1002B0001360374B1B6803F400333B607B680133EA
:1002C0007B603B68002B03D17B68B3F5A06FF0D156
:1002D0002F4B1B6803F40033002B02D001233B603B
:1002E00001E000233B603B68012B4BD1294B1B688D
:1002F000284A43F010031360264B1B68254A23F05D
:1003000003031360234B1B68224A43F0020313606C
:100310001F4B1F4A5B6853601D4B1D4A5B6853604F
:100320001B4B5B681A4A43F480635360184B5B684D
:10033000174A23F47C135360154B5B68144A43F44B
:10034000E8135360124B1B68114A43F0807313602B
:1003500000BF0F4B1B6803F00073002BF9D00C4B50
:100360005B680B4A23F003035360094B5B68084A40
:1003700043F00203536000BF054B5B6803F00C03BE
:10038000082BF9D100BF0C37BD4680BC704700BFB9
:10039000001002400020024080B582B000AF7860BB
:1003A0007B682F4A934208D10121042000F00EFE01
:1003B0000021042000F00AFE4EE07B68294A9342A7
:1003C00008D10121082000F001FE0021082000F0E2
:1003D000FDFD41E07B68244A934208D101211020B1
:1003E00000F0F4FD0021102000F0F0FD34E07B6807
:1003F0001E4A934208D10121202000F0E7FD002190
:10040000202000F0E3FD27E07B68194A934208D1E1
:100410000121402000F0DAFD0021402000F0D6FD4F
:100420001AE07B68134A934208D10121802000F032
:10043000CDFD0021802000F0C9FD0DE07B680E4A53
:10044000934209D101214FF4807000F0BFFD0021DB
:100450004FF4807000F0BAFD00BF0837BD4680BD84
:1004600000080140000C0140001001400014014050
:1004700000180140001C01400020014080B500AF81
:100480000121012000F0A2FD0021012000F09EFDCD
:1004900000BF80BD80B489B000AF786039600023B0
:1004A000FB6100233B610023BB610023FB60002351
:1004B0007B610023BB603B68DB7803F00F03FB61CB
:1004C0003B68DB7803F01003002B05D03B689B787A
:1004D0001A46FB691343FB613B681B88DBB2002BA8
:1004E00044D07B681B687B610023BB6138E001223C
:1004F000BB6902FA03F3FB603B681B881A46FB6882
:1005000013403B613A69FB689A4226D1BB699B0064
:10051000FB600F22FB6802FA03F3BB60BB68DB439E
:100520007A6913407B61FA69FB6802FA03F37A691E
:1005300013437B613B68DB78282B05D10122BB6923
:100540009A407B685A6108E03B68DB78482B04D10D
:100550000122BB699A407B681A61BB690133BB61A8
:10056000BB69072BC3D97B687A691A603B681B8813
:10057000FF2B46D97B685B687B610023BB613AE057
:10058000BB690833012202FA03F3FB603B681B8856
:100590001A46FB6813403B613A69FB689A4227D1CF
:1005A000BB699B00FB600F22FB6802FA03F3BB6090
:1005B000BB68DB437A6913407B61FA69FB6802FA26
:1005C00003F37A6913437B613B68DB78282B05D101
:1005D000BB69083301229A407B685A613B68DB782B
:1005E000482B05D1BB69083301229A407B681A6108
:1005F000BB690133BB61BB69072BC1D97B687A69D1
:100600005A6000BF2437BD4680BC704780B483B0B9
:1006100000AF78607B684FF6FF721A807B68022219
:100620009A707B680422DA7000BF0C37BD4680BC2C
:10063000704780B485B000AF78600B467B800023A4
:10064000FB737B689A687B881340002B02D00123E0
:10065000FB7301E00023FB73FB7B18461437BD4698
:1006600080BC704780B483B000AF78607B689B68C3
:100670009BB218460C37BD4680BC704780B485B02D
:1006800000AF78600B467B800023FB737B68DA68E1
:100690007B881340002B02D00123FB7301E0002371
:1006A000FB73FB7B18461437BD4680BC704780B493
:1006B00083B000AF78607B68DB689BB218460C376C
:1006C000BD4680BC704780B483B000AF78600B46F5
:1006D0007B807A887B681A6100BF0C37BD4680BC7E
:1006E000704780B483B000AF78600B467B807A8817
:1006F0007B685A6100BF0C37BD4680BC704780B430
:1007000083B000AF78600B467B8013467B707B78AC
:10071000002B03D07A887B681A6102E07A887B68B4
:100720005A6100BF0C37BD4680BC704780B483B0AF
:1007300000AF78600B467B807A887B68DA6000BF08
:100740000C37BD4680BC704780B485B000AF786080
:100750000B467B804FF48033FB607B88FA68134341
:10076000FB607B68FA689A617A887B689A617B682B
:10077000FA689A617B689B69FB607B689B69FB6098
:1007800000BF1437BD4680BC704780B485B000AF51
:1007900003460A46FB711346BB710023FB600C4BFA
:1007A0001B68FB60FA684FF680731340FB60FB79AF
:1007B0001B01FA681343FB60BB79FA681343FB60C3
:1007C000034AFB68136000BF1437BD4680BC704706
:1007D0000000014080B483B000AF0346FB71044ABF
:1007E000FB79136000BF0C37BD4680BC704700BF6B
:1007F0001C00204280B487B000AF78600B46FB70CD
:1008000000233B610023FB6000237B610023BB606E
:100810007B68002B03DA2E4BDB697B6102E02C4BFB
:100820005B687B617B681B0C03F00F03BB607B681C
:100830009BB23B617B6803F44013B3F5401F0AD1C0
:100840007B6923F070637B61214B5B68204A23F056
:100850007063536021E07B6803F48013002B0ED09B
:100860000322BB6802FA03F3FB60FB68DB437A698F
:1008700013407B617B6943F070637B610DE07B68B3
:100880005B0D1B013A6902FA03F3DB437A691340FB
:100890007B617B6943F070637B61FB78002B08D040
:1008A0007B685B0D1B013A6902FA03F37A69134313
:1008B0007B617B68002B03DA054A7B69D36102E028
:1008C000034A7B69536000BF1C37BD4680BC70473C
:1008D0000000014080B485B000AF03460A46FB71BA
:1008E0001346BB710023FB60BB7903F003039B003D
:1008F0000F2202FA03F3FB60154ABB799B08DBB2B7
:10090000023352F82320FB68DB431148B979890888
:10091000C9B21A408B1C40F823200D4ABB799B08B2
:10092000DBB2023352F82320F979BB7903F00303D9
:100930009B0001FA03F30648B9798908C9B21A4342
:100940008B1C40F8232000BF1437BD4680BC704785
:100950000000014080B483B000AF7860034A7B6838
:10096000136000BF0C37BD4680BC7047DC002042DE
:10097000002103E00A4B5B584350043109480A4BFD
:1009800042189A42F6D3094A02E0002342F8043B97
:10099000074B9A42F9D3FFF7D9FB01F03FFB7047B1
:1009A0008036000800000020680400206804002051
:1009B000F4050020FEE7000080B400AF134B1B6875
:1009C000124A43F001031360104B5A680F49104B51
:1009D00013404B600D4B1B680C4A23F0847323F4C7
:1009E00080331360094B1B68084A23F4802313608B
:1009F000064B5B68054A23F4FE035360034B4FF438
:100A00001F029A6000BFBD4680BC704700100240C4
:100A10000000FFF880B483B000AF7860134B1B6810
:100A2000124A23F480331360104B1B680F4A23F4DF
:100A3000802313607B68B3F5803F03D0B3F5802F2C
:100A400007D00DE0094B1B68084A43F4803313605C
:100A500006E0064B1B68054A43F4A023136000BF61
:100A600000BF0C37BD4680BC704700BF001002407D
:100A700080B582B000AF00233B600023FB710023F0
:100A8000BB71312000F00EFB0346BB713B680133A4
:100A90003B603B68B3F5A06F02D0BB79002BF0D070
:100AA000312000F0FFFA0346002B02D00123FB7136
:100AB00001E00023FB71FB7918460837BD4680BD75
:100AC00080B485B000AF0346FB710023FB600A4B86
:100AD0001B68FB60FB6823F0F803FB60FB79DB001D
:100AE000FA681343FB60044AFB68136000BF1437C5
:100AF000BD4680BC704700BF0010024080B483B088
:100B000000AF0346FB71044AFB79136000BF0C374A
:100B1000BD4680BC704700BF0000424280B485B033
:100B200000AF786039600023FB600A4B5B68FB60B4
:100B3000FB6823F47C13FB607A683B681343FA6814
:100B40001343FB60034AFB68536000BF1437BD4684
:100B500080BC70470010024080B483B000AF0346F1
:100B6000FB71044AFB79136000BF0C37BD4680BCA3
:100B7000704700BF6000424280B485B000AF78602B
:100B80000023FB60094B5B68FB60FB6823F00303F9
:100B9000FB60FA687B681343FB60044AFB685360A0
:100BA00000BF1437BD4680BC704700BF0010024034
:100BB00080B400AF044B5B68DBB203F00C03DBB224
:100BC0001846BD4680BC70470010024080B485B016
:100BD00000AF78600023FB60094B5B68FB60FB683B
:100BE00023F0F003FB60FA687B681343FB60044A60
:100BF000FB68536000BF1437BD4680BC704700BF20
:100C00000010024080B485B000AF78600023FB6024
:100C1000094B5B68FB60FB6823F4E063FB60FA68E8
:100C20007B681343FB60044AFB68536000BF1437C2
:100C3000BD4680BC704700BF0010024080B485B044
:100C400000AF78600023FB60094B5B68FB60FB68CA
:100C500023F46053FB607B68DB00FA681343FB609E
:100C6000034AFB68536000BF1437BD4680BC704721
:100C70000010024080B483B000AF03460A46FB7107
:100C80001346BB71BB79002B08D00C4B1B78DAB232
:100C90000A49FB791343DBB20B7009E0074B1B7861
:100CA000DAB2FB79DB43DBB204491340DBB20B70F1
:100CB00000BF0C37BD4680BC704700BF0910024022
:100CC00080B483B000AF7860034A7B68136000BFD4
:100CD0000C37BD4680BC7047D800424280B485B016
:100CE00000AF78600023FB60094B5B68FB60FB682A
:100CF00023F44043FB60FA687B681343FB60044ABB
:100D0000FB68536000BF1437BD4680BC704700BF0E
:100D10000010024080B483B000AF0346FB710C4B5F
:100D200000221A700A4B00221A70FB79012B02D0A4
:100D3000042B04D007E0064B01221A7003E0044B99
:100D400005221A7000BF00BF0C37BD4680BC70473B
:100D50002010024080B483B000AF0346FB71044A08
:100D6000FB79136000BF0C37BD4680BC704700BFE5
:100D70008004424280B483B000AF7860054B1A6AA9
:100D800004497B6813430B6200BF0C37BD4680BC2F
:100D9000704700BF0010024080B483B000AF03462C
:100DA000FB71044AFB79136000BF0C37BD4680BC61
:100DB000704700BF3C04424280B487B000AF786007
:100DC00000237B6100233B610023FB600023BB60A9
:100DD0004C4B5B6803F00C037B617B69042B07D0F1
:100DE000082B09D0002B33D17B68474A1A6033E0C7
:100DF0007B68454A1A602FE0424B5B6803F470132E
:100E00003B61404B5B6803F48033FB603B699B0CA8
:100E100002333B61FB68002B06D13B693B4A02FB76
:100E200003F27B681A6017E0364B5B6803F400330B
:100E3000002B06D03B69354A02FB03F27B681A603F
:100E40000AE03B69304A02FB03F27B681A6003E068
:100E50007B682D4A1A6000BF2A4B5B6803F0F003E1
:100E60007B617B691B097B61294A7B6913441B7881
:100E7000DBB2BB607B681A68BB68DA407B685A608B
:100E8000204B5B6803F4E0637B617B691B0A7B6139
:100E90001F4A7B6913441B78DBB2BB607B685A68CE
:100EA000BB68DA407B689A60164B5B6803F460535A
:100EB0007B617B69DB0A7B61154A7B6913441B7884
:100EC000DBB2BB607B685A68BB68DA407B68DA607B
:100ED0000C4B5B6803F440437B617B699B0B7B613C
:100EE0000C4A7B6913441B78DBB2BB607B68DA6811
:100EF000BB68B2FBF3F27B681A6100BF1C37BD46CA
:100F000080BC70470010024000127A0000093D00CA
:100F1000140000202400002080B483B000AF78606B
:100F20000B46FB70FB78002B06D0094B5A69084929
:100F30007B6813434B6106E0054B5A697B68DB43D2
:100F4000034913404B6100BF0C37BD4680BC70475E
:100F50000010024080B483B000AF78600B46FB7095
:100F6000FB78002B06D0094B9A6908497B6813432C
:100F70008B6106E0054B9A697B68DB4303491340AC
:100F80008B6100BF0C37BD4680BC7047001002402B
:100F900080B483B000AF78600B46FB70FB78002B09
:100FA00006D0094BDA6908497B681343CB6106E038
:100FB000054BDA697B68DB4303491340CB6100BF13
:100FC0000C37BD4680BC70470010024080B483B02F
:100FD00000AF78600B46FB70FB78002B06D0094B06
:100FE000DA6808497B681343CB6006E0054BDA6892
:100FF0007B68DB4303491340CB6000BF0C37BD4621
:1010000080BC70470010024080B483B000AF7860AD
:101010000B46FB70FB78002B06D0094B1A69084978
:101020007B6813430B6106E0054B1A697B68DB4361
:10103000034913400B6100BF0C37BD4680BC7047AD
:101040000010024080B483B000AF0346FB71044A35
:10105000FB79136000BF0C37BD4680BC704700BFF2
:101060004004424280B483B000AF0346FB71044A9F
:10107000FB79136000BF0C37BD4680BC704700BFD2
:101080004C00424280B483B000AF0346FB71044A77
:10109000FB79137000BF0C37BD4680BC704700BFA2
:1010A0000710024080B487B000AF0346FB710023F5
:1010B000FB6000237B610023FB74FB795B09DBB2DF
:1010C000FB60FB68012B03D1124B1B687B6109E0BD
:1010D000FB68022B03D10F4B1B6A7B6102E00D4BB7
:1010E0005B6A7B61FB7903F01F03FB607A69FB6835
:1010F00022FA03F303F00103002B02D00123FB7457
:1011000001E00023FB74FB7C18461C37BD4680BC05
:10111000704700BF0010024080B400AF044B5B6A10
:10112000034A43F08073536200BFBD4680BC7047E2
:101130000010024080B485B000AF0346FB7100236D
:10114000FB73084B9A68FB791340002B02D00123F4
:10115000FB7301E00023FB73FB7B18461437BD468D
:1011600080BC70470010024080B483B000AF0346DB
:10117000FB71044AFB79137000BF0C37BD4680BC7D
:10118000704700BF0A10024080B483B000AF03462E
:10119000FB71FB7903F01F03012202FA03F1054AF8
:1011A00097F907305B0942F8231000BF0C37BD46A2
:1011B00080BC704700E100E080B483B000AF002342
:1011C0007B6000233B60584B1B68574A43F48033D5
:1011D0001360554B1B68544A23F001031360524BB4
:1011E0001B6803F400333B607B6801337B603B6822
:1011F000002B03D17B68B3F5A06FF0D14A4B1B687D
:1012000003F40033002B02D001233B6001E00023F4
:101210003B60454B1B68444A43F4002313603B6822
:10122000012B7CD1404B5B683F4A23F002035360A3
:101230003D4B5B683C4A43F00103536000BF3A4BAF
:101240005B6803F00C03042BF9D1384B1B68374A59
:1012500043F010031360354B1B68344A23F0080336
:101260001360324B1B6823F00303304A43F0020340
:1012700013602D4B1B682C4A23F0807313602A4B9C
:101280005B68294A23F470135360274B5B68264A36
:1012900043F400235360244B5B68234A43F48033B8
:1012A0005360214B5B68204A23F0F00353601E4BD0
:1012B0005B681D4A23F4E06353601B4B5B681A4A6A
:1012C00043F4A0635360184B5B68174A23F46053E0
:1012D0005360154B5B68144A43F440435360124B10
:1012E0005B68114A23F0010353600F4B5B680E4AA1
:1012F00043F0020353600C4B1B680B4A43F08073AE
:10130000136000BF084B1B6803F00073002BF9D07B
:1013100000BF054B5B6803F00C03082BF9D100BF3D
:101320000C37BD4680BC70470010024000200240D0
:1013300080B582B000AF01210420FFF70BFE012130
:101340000120FFF707FE3B1D1846FFF75FF9012359
:10135000BB800023FB710223BB713B1D1846FFF7C6
:1013600055F90223BB801023FB710123BB713B1D88
:1013700019467048FFF78EF83B1D1846FFF746F9EF
:101380000423BB801023FB710123BB713B1D194655
:101390006848FFF77FF83B1D1846FFF737F9082329
:1013A000BB801023FB710123BB713B1D19466148B3
:1013B000FFF770F83B1D1846FFF728F91023BB8094
:1013C0001023FB710123BB713B1D19465948FFF7E0
:1013D00061F83B1D1846FFF719F92023BB80102345
:1013E000FB710123BB713B1D19465248FFF752F8B0
:1013F0003B1D1846FFF70AF94023BB801023FB7101
:101400000123BB713B1D19464A48FFF743F83B1DBA
:101410001846FFF7FBF88023BB801023FB710123E4
:10142000BB713B1D19464348FFF734F83B1D184676
:10143000FFF7ECF84FF48073BB801023FB7101239E
:10144000BB713B1D19463B48FFF724F83B1D18466E
:10145000FFF7DCF84FF40073BB801023FB7101230E
:10146000BB713B1D19463348FFF714F83B1D184666
:10147000FFF7CCF84FF48063BB801023FB7101238E
:10148000BB713B1D19462B48FFF704F83B1D18465E
:10149000FFF7BCF84FF40063BB800423FB7101230A
:1014A000BB713B1D19462348FEF7F4FF3B1D184650
:1014B000FFF7ACF84FF48053BB800423FB7101238A
:1014C000BB713B1D19461B48FEF7E4FF3B1D184648
:1014D000FFF79CF84FF40053BB801023FB710123EE
:1014E000BB713B1D19461348FEF7D4FF3B1D184640
:1014F000FFF78CF84FF48043BB801023FB7101236E
:10150000BB713B1D19460B48FEF7C4FF3B1D184637
:10151000FFF77CF84FF40043BB802823FB710223C4
:10152000BB713B1D19460348FEF7B4FF00BF0837E7
:10153000BD4680BD0008014080B582B000AF0121EA
:101540000820FFF707FD3B1D1846FFF75FF8012352
:10155000BB801023FB710123BB713B1D19467848EA
:10156000FEF798FF3B1D1846FFF750F80223BB809B
:101570002823FB710223BB713B1D19467048FEF7FF
:1015800089FF3B1D1846FFF741F80423BB80282341
:10159000FB710223BB713B1D19466948FEF77AFFB8
:1015A0003B1D1846FFF732F80823BB802823FB7148
:1015B0000223BB713B1D19466148FEF76BFF3B1DC3
:1015C0001846FFF723F81023BB801023FB7101237B
:1015D000BB713B1D19465A48FEF75CFF3B1D184680
:1015E000FFF714F82023BB801023FB710123BB718C
:1015F0003B1D19465248FEF74DFF3B1D1846FFF7AD
:1016000005F84023BB801023FB710123BB713B1DF8
:1016100019464B48FEF73EFF3B1D1846FEF7F6FF06
:101620008023BB801023FB710123BB713B1D194636
:101630004348FEF72FFF3B1D1846FEF7E7FF4FF428
:101640008073BB801023FB710123BB713B1D1946C6
:101650003B48FEF71FFF3B1D1846FEF7D7FF4FF430
:101660000073BB801023FB710123BB713B1D194626
:101670003348FEF70FFF3B1D1846FEF7C7FF4FF438
:101680008063BB801023FB710123BB713B1D194696
:101690002B48FEF7FFFE3B1D1846FEF7B7FF4FF441
:1016A0000063BB801023FB710123BB713B1D1946F6
:1016B0002348FEF7EFFE3B1D1846FEF7A7FF4FF449
:1016C0008053BB801023FB710123BB713B1D194666
:1016D0001B48FEF7DFFE3B1D1846FEF797FF4FF451
:1016E0000053BB801023FB710123BB713B1D1946C6
:1016F0001348FEF7CFFE3B1D1846FEF787FF4FF459
:101700008043BB801023FB710123BB713B1D194635
:101710000B48FEF7BFFE3B1D1846FEF777FF4FF460
:101720000043BB801023FB710123BB713B1D194695
:101730000348FEF7AFFE00BF0837BD4680BD00BFBF
:10174000000C014080B500AF40F2FE710648FEF784
:10175000C8FFF0210548FEF7C4FF4FF47F4103485E
:10176000FEF7B1FF00BF80BD00080140000C014042
:1017700080B400AF154B9B69144A43F40073936126
:10178000134B5B68124A43F402635360104B002210
:101790005A630F4B9B680E4A43F0010393600C4B56
:1017A0001B690B4A43F001031361094B9B68084A0C
:1017B00043F00403936000BF054B9B6803F00403F0
:1017C000002BF9D100BFBD4680BC7047001002401D
:1017D0000024014080B400AF104BDB690F4A43F096
:1017E0000103D3614FF080439B899BB24FF080424D
:1017F00043F001039BB293814FF0804314229A85FA
:101800004FF080434FF4FA521A854FF0804305227F
:101810001A8000BFBD4680BC704700BF0010024068
:1018200080B400AF0D4BDB690C4A43F00203D36177
:101830000B4B9B899BB20A4A43F001039BB29381F5
:10184000074B19229A85064B4FF4C8621A85044B40
:1018500005221A8000BFBD4680BC704700100240C0
:101860000004004080B400AF0D4BDB690C4A43F02C
:101870000403D3610B4B9B899BB20A4A43F00103DB
:101880009BB29381074B32229A85064BA0221A8580
:10189000044B05221A8000BFBD4680BC704700BFC4
:1018A000001002400008004080B500AF2021104821
:1018B000FEF709FF20210E48FEF705FF40210C48E6
:1018C000FEF701FF40210A48FEF7FDFE40210848CF
:1018D000FEF707FF40210648FEF703FF20210448DA
:1018E000FEF7FFFE20210248FEF7FBFE00BF80BD91
:1018F000000C014080B500AF20211048FEF7F1FE3A
:1019000020210E48FEF7EDFE40210C48FEF7DBFEDD
:1019100040210A48FEF7D7FE40210848FEF7E1FEC5
:1019200040210648FEF7DDFE20210448FEF7D9FEDF
:1019300020210248FEF7D5FE00BF80BD000C01400B
:1019400080B500AF10210848FEF7BDFE1021064803
:10195000FEF7B9FE10210448FEF7C3FE102102482D
:10196000FEF7BFFE00BF80BD000C014080B584B013
:1019700000AF78600023FB730023BB73FE21424855
:10198000FEF7AFFE0023FB730CE0404B1B78FA7BA5
:101990009A4202D1FFF788FF01E0FFF7ABFFFB7B24
:1019A0000133FB73FB7B0F2BEFD9FFF7C9FF374BDD
:1019B0001B78002B03D1354B0F221A7005E0334BF7
:1019C0001B78013BDAB2314B1A700123BB7327E05D
:1019D0002F4B1B781A462F4B1B7813441A467B68F3
:1019E00013441B78012B09D1BB7B012202FA03F3BC
:1019F0009BB219462448FEF766FE08E0BB7B012235
:101A000002FA03F39BB219461F48FEF76AFE214B08
:101A10001B780833DAB21F4B1A70BB7B0133BB73E0
:101A2000BB7B072BD4D91B4B00221A70184B1B7899
:101A30003F2B0AD0164B1B78072B06D0144B1B7874
:101A40000133DAB2124B1A701AE0114B1B783F2B9C
:101A500003D10F4B00221A7012E00D4B38221A707E
:101A60000D4B9B79DBB2012B0AD10B4B00229A71F3
:101A7000094B5B79DBB283F00103DAB2064B5A7192
:101A800000BF1037BD4680BD00080140280000207F
:101A900029000020A5050020BC05002080B584B0E9
:101AA00000AF78600023FB737F4B1B78012B52D073
:101AB000022B00F09D80002B00D0F1E00023FB738F
:101AC0000CE0FB7B4FF4807202FA03F39BB21946E1
:101AD0007648FEF7F8FDFB7B0133FB73FB7B072B9E
:101AE000EFD94FF480717248FEF7EDFD4FF4C061FD
:101AF0006F48FEF7F6FD0023FB7322E0FA7B1346E6
:101B00005B0013447A6813441A786A4B1B789A4234
:101B10000AD9FB7B4FF4807202FA03F39BB2194699
:101B20006248FEF7DEFD09E0FB7B4FF4807202FAAB
:101B300003F39BB219465D48FEF7C5FDFB7B0133FD
:101B4000FB73FB7B072BD9D9574B1B780133DAB2D8
:101B5000554B1A70A4E00023FB730CE0FB7B4FF4A1
:101B6000807202FA03F39BB219465048FEF7ABFDB0
:101B7000FB7B0133FB73FB7B072BEFD94FF4007129
:101B80004B48FEF7A0FD4FF4A0614948FEF7A9FDC0
:101B90000023FB7322E0FA7B13465B0013447A6850
:101BA00013445A78434B1B789A420AD9FB7B4FF473
:101BB000807202FA03F39BB219463C48FEF791FD8E
:101BC00009E0FB7B4FF4807202FA03F39BB21946E3
:101BD0003648FEF778FDFB7B0133FB73FB7B072B5D
:101BE000D9D9314B1B780133DAB22F4B1A7057E039
:101BF0000023FB730CE0FB7B4FF4807202FA03F3CB
:101C00009BB219462948FEF75EFDFB7B0133FB734F
:101C1000FB7B072BEFD94FF480612548FEF753FD7E
:101C20004FF440712248FEF75CFD0023FB7322E075
:101C3000FA7B13465B0013447A6813449A781D4B71
:101C40001B789A420AD9FB7B4FF4807202FA03F3A5
:101C50009BB219461548FEF744FD09E0FB7B4FF4A3
:101C6000807202FA03F39BB219461048FEF72BFD6F
:101C7000FB7B0133FB73FB7B072BD9D90A4B00227B
:101C80001A700C4B1B78092B06D80A4B1B780133B2
:101C9000DAB2084B1A7002E0064B01221A7000BF3C
:101CA00000BF1037BD4680BDA6050020000C0140D6
:101CB000000801402A00002080B483B000AF002358
:101CC000FB710023FB710AE0FB791A4A0021D15411
:101CD000FB79194A0021D154FB790133FB71FB795F
:101CE0006B2BF1D90023FB711CE0FA7913491346E1
:101CF0005B0013440B4400221A70FA790F49134613
:101D00005B0013440B44013300221A70FA790B492B
:101D100013465B0013440B44023300221A70FB7914
:101D20000133FB71FB79072BDFD900BF0C37BD46B0
:101D300080BC704784040020F40400206405002067
:101D400080B400AF194B1B6803F00203002B29D0AD
:101D5000164BD96C164B1B781A4689B2154B23F8D3
:101D60001210134B1B78062B06D8114B1B7801332E
:101D7000DAB20F4B1A700BE00D4B00221A700E4BAB
:101D800000221A600D4B1B6843F480730B4A1360EA
:101D9000094B1B68012B05D1044B9B68034A43F098
:101DA0000103936000BFBD4680BC70470024014022
:101DB000A7050020940500202C000020BC05002071
:101DC00080B500AF134B1B8A9BB203F00103002BBD
:101DD0001ED001211048FEF776FC1048FFF75EFE8A
:101DE0000F4B5B79DBB2012B03D10E48FFF7BEFD31
:101DF00002E00D48FFF7BAFD01210748FEF771FC2C
:101E0000044B1B8A9BB2034A23F001039BB213824B
:101E100000BF80BD00080040000C014064050020A8
:101E2000BC050020F40400208404002080B500AF2D
:101E30004FF080431B8A9BB203F00103002B00F09C
:101E4000B1804FF400615848FEF7F3FB0346002BC6
:101E500011D0564B1B78FF2B06D0544B1B78013307
:101E6000DAB2524B1A7033E0514B1B6843F0100347
:101E70004F4A13602CE04D4B1B78012B25D94C4B5E
:101E80001B6803F01003002B06D0494B1B6823F09E
:101E90001003474A136018E0444B1B78052B0AD9FE
:101EA000424B1B784F2B06D8414B1B6843F0040371
:101EB0003F4A136009E03D4B1B78502B05D93C4B42
:101EC0001B6843F008033A4A1360384B00221A702B
:101ED0004FF480513448FEF7ACFB0346002B11D081
:101EE000344B1B78FF2B06D0324B1B780133DAB210
:101EF000304B1A7033E02E4B1B6843F080032C4AA2
:101F000013602CE02B4B1B78012B25D9284B1B6829
:101F100003F08003002B06D0254B1B6823F08003C1
:101F2000234A136018E0234B1B78052B0AD9214B59
:101F30001B784F2B06D81E4B1B6843F020031C4A0E
:101F4000136009E01B4B1B78502B05D9184B1B68FD
:101F500043F04003164A1360164B00221A70164BCA
:101F60001B78632B06D8144B1B780133DAB2124B63
:101F70001A700DE0114B9B68104A43F00103936007
:101F80000D4B00221A700A4BDB680133084AD360FC
:101F90004FF080431B8A9BB24FF0804223F0010335
:101FA0009BB2138200BF80BD00080140A80500203D
:101FB000BC050020A9050020AA050020002401403E
:101FC00080B400AF134B1B8A9BB203F00103002BBC
:101FD0001CD0114B1A69104B9B689A4209D90E4BC1
:101FE0001B6843F001030C4A13600B4B00221A617B
:101FF00004E0094B1B690133074A1361054B1B8A37
:102000009BB2044A23F001039BB2138200BFBD467A
:1020100080BC704700040040BC05002090B585B02E
:1020200000AF0023FB6000233B7200237B60994BD1
:1020300000221A60974B00221A71964B00225A71A7
:10204000944B00229A71934B1F229A60914B00226D
:102050001A61914B9B69904A43F0010393618F4B46
:102060005B688E4A43F000735360FFF7A5F8FFF7F3
:102070005FF9FFF761FAFFF765FBFFF7F3FBFFF787
:10208000A9FBFFF7CDFBFFF773FB1E20FFF77CF8E2
:102090001C20FFF779F81D20FFF776F81220FFF7D4
:1020A00073F862B67E4B9B687D4A43F001039360F0
:1020B00080217C48FEF707FB764B1B6803F080030A
:1020C000002B2DD0734B1B6803F48063002B27D1AA
:1020D000704B1B6843F480636E4A1360724B1B881D
:1020E00040F67E02934208D96F4B1B88A3F67A0311
:1020F0009B109AB26D4B1A8002E06C4B01221A8041
:10210000644BDB68FB60634B9B689AB2684B1A8038
:10211000604B15229A60674B00221A70FFF7CCFDC6
:102120005C4B1B6803F40073002B06D1594B1B68F2
:1021300003F48063002B00F08280564B1B6803F48D
:102140000073002B05D05C4B07221A705A4B0722F4
:10215000DA70504B1B6803F48063002B01F051814F
:102160004C4BDB68FA689A4281F04B81494B1B6803
:1021700003F00103002B49D0464B5B79DBB2012B06
:1021800017D10023FB7210E04A4B1B78FA7A9A426F
:1021900004D8FB7A494A0121D15403E0FB7A474A2B
:1021A0000021D154FB7A0133FB72FB7A6B2BEBD904
:1021B00016E00023FB7210E03E4B1B78FA7A9A423D
:1021C00004D8FB7A3E4A0121D15403E0FB7A3C4A11
:1021D0000021D154FB7A0133FB72FB7A6B2BEBD9D4
:1021E000344B1B789AB2314B1B889A4205D2314B43
:1021F0001B780133DAB22F4B1A70264B01229A71E9
:10220000244B1B6823F00103224A1360214BDA6838
:10221000FB6808339A4241F2F4801E4B1B6823F49A
:1022200080631C4A1360FFF747FD224B00221A709F
:102230001F4B1B881A46174B9A6001F0E2B8154BEA
:102240001B6803F02003002B05D1124B1B6803F021
:102250000403002B48D00F4B1B6803F00103002B35
:1022600042D00C4B1B6803F02003002B2AD0094BF3
:102270009B68062B07D9074B9B68053B054A936073
:10228000044B00221A61034B1B6823F02003014A10
:10229000136029E0BC05002000100240000001404E
:1022A00000240140000C0140AC050020AE050020D8
:1022B000B0050020B2050020640500208404002041
:1022C000F4040020A24B9B68F92B07D8A04B9B6815
:1022D00005339F4A93609E4B00221A619C4B1B68FA
:1022E00023F004039A4A1360994B1B6803F04003E0
:1022F000002B05D1964B1B6803F00803002B54D02C
:10230000934B1B6803F00103002B4ED0904B1B68CE
:1023100003F04003002B24D08E4B00221A708E4B0A
:1023200000221A708D4B00221A708D4B00221A70F9
:10233000874B1B79DBB2092B07D8854B1B79DBB2A6
:102340000133DAB2824B1A7102E0814B00221A711A
:10235000FFF7B2FC7E4B1B6823F040037C4A1360FE
:1023600023E07C4B00221A707B4B00221A707B4BBF
:1023700000221A707A4B00221A70754B1B79DBB25F
:10238000002B07D0724B1B79DBB2013BDAB2704BEA
:102390001A7102E06E4B0A221A71FFF78DFC6C4B2A
:1023A0001B6823F008036A4A1360694B1B6803F03B
:1023B0000103002B44D0664B1B79DBB20A2B3FD1C3
:1023C000634B1B6803F40073002B39D1654B1B78FA
:1023D0001946654B1B781C46644B1878644A0B46BB
:1023E0005B000B441344234402461A705D4B1B7878
:1023F000062B06D85B4B1B780133DAB2594B1A70A7
:1024000002E0584B00221A70584B1B78042B06D858
:10241000564B1B780133DAB2544B1A7010E0534B11
:1024200000221A70504B1B78012B06D84E4B1B789C
:102430000133DAB24C4B1A7002E04B4B00221A7097
:10244000434B1B79DBB20A2B00F2DD8701A252F865
:1024500023F000BF8124000831290008C7290008A3
:10246000992A000889280008BF2B0008A92D000818
:10247000012F0008BB30000839320008DF320008A5
:10248000334B1B6803F00103002B00F0BE87314B78
:102490001B78042B00F2F98001A252F823F000BF50
:1024A000B5240008EF240008292500088F2500081E
:1024B000FF250008284B1A782D4B9A73264B1A7863
:1024C0002B4B5A74244B1B78042B06D8224B1B78B9
:1024D0000133DAB2204B1A70D7E01F4B00221A707A
:1024E0001C4B1B780133DAB21A4B1A70CDE01A4B31
:1024F0001A781F4BDA72184B1A781D4B1A75164B47
:102500001B78042B06D8144B1B780133DAB2124B1C
:102510001A70BAE0104B00221A700E4B1B78013370
:10252000DAB20C4B1A70B0E00B4B1A78104B1A72DF
:10253000094B1A780E4BDA75074B1B78042B19D808
:10254000054B1B780133DAB2034B1A709DE000BFD4
:10255000BC050020B2050020B3050020B405002012
:10256000B5050020B6050020B7050020B8050020FD
:1025700064050020974B00221A70974B1B7801339B
:10258000DAB2954B1A70954B00221A707DE0934B8E
:102590001B78002B19D18F4B1A78914B1A708D4BE9
:1025A0001A788F4B1A718B4B1B78062B06D8894BE8
:1025B0001B780133DAB2874B1A7066E0864B1B78C2
:1025C0000133DAB2844B1A705FE0824B1A78844B85
:1025D0005A70804B1A78824BDA707E4B1B78062B30
:1025E00006D87C4B1B780133DAB27A4B1A704CE078
:1025F000794B1B780133DAB2774B1A7045E0774B91
:102600001B78002B20D1734B1A78754B1A70714BC5
:102610001A78734B1A716F4B1B78012B06D96D4BCF
:102620001B78013BDAB26B4B1A702DE0694B00222C
:102630001A70694B03221A70684B1B7883F00103F0
:10264000DAB2664B1A701FE0624B1A78644B5A700C
:10265000604B1A78624BDA705E4B1B78012B06D9FF
:102660005C4B1B78013BDAB25A4B1A700CE0594BA9
:1026700000221A70584B03221A70584B1B7883F0B3
:102680000103DAB2554B1A7000BF534B1B78022B73
:1026900040F2F280534B5B79DBB2012B65D1002312
:1026A000FB725EE0504B1B78FA7A9A422BD8FB7A89
:1026B0000A334E4A0121D154FB7A2E334B4A012171
:1026C000D154FB7A5233494A0121D154FB7AC3F1E8
:1026D0002D03464A0121D154FB7AC3F15103434AE9
:1026E0000121D154FB7A092B06D8FB7AC3F10903E7
:1026F0003E4A0121D15431E0FB7AC3F175033B4AD4
:102700000121D1542AE0FB7A0A33384A0021D154FE
:10271000FB7A2E33354A0021D154FB7A5233334AA7
:102720000021D154FB7AC3F12D03304A0021D1544A
:10273000FB7AC3F151032D4A0021D154FB7A092BB6
:1027400006D8FB7AC3F10903284A0021D15405E0D9
:10275000FB7AC3F17503254A0021D154FB7A01337A
:10276000FB72FB7A112B9DD975E00023FB726FE0A1
:102770001D4B1B78FA7A9A423CD8FB7A0A331C4AE2
:102780000121D154FB7A2E33194A0121D154FB7A0D
:102790005233174A0121D154FB7AC3F12D03144A55
:1027A0000121D154FB7AC3F15103114A0121D154C3
:1027B000FB7A092B06D8FB7AC3F109030C4A0121E5
:1027C000D15442E0FB7AC3F17503094A0121D15487
:1027D0003BE000BFB3050020B2050020B405002097
:1027E00064050020BC050020B505002084040020FD
:1027F000F4040020FB7A0A33A24A0021D154FB7A68
:102800002E33A04A0021D154FB7A52339D4A002135
:10281000D154FB7AC3F12D039A4A0021D154FB7A9B
:10282000C3F15103974A0021D154FB7A092B06D8F2
:10283000FB7AC3F10903934A0021D15405E0FB7AE6
:10284000C3F175038F4A0021D154FB7A0133FB7227
:10285000FB7A112B8CD98C4B1B78112B06D88A4B09
:102860001B780133DAB2884B1A7002E0864B0022E3
:102870001A70864B01229A71844B1B6823F0010366
:10288000824A136000F0C1BD804B1B6803F0010356
:10289000002B00F0BC857D4B5B79DBB2012B17D19F
:1028A0000023FB7210E07A4B1B78FA7A9A4204D824
:1028B000FB7A784A0121D15403E0FB7A754A002162
:1028C000D154FB7A0133FB72FB7A6B2BEBD916E008
:1028D0000023FB7210E06E4B1B78FA7A9A4204D800
:1028E000FB7A684A0121D15403E0FB7A654A002152
:1028F000D154FB7A0133FB72FB7A6B2BEBD9644B1F
:102900001B786B2B06D8624B1B780133DAB2604B15
:102910001A7002E05E4B00221A705C4B01229A7121
:102920005A4B1B6823F00103584A136000F06FBD37
:10293000564B1B6803F00103002B00F06A85534BD4
:102940005B79DBB2012B16D10023FB720FE0504BF9
:102950001B78002B04D1FB7A4E4A0021D15403E0AE
:10296000FB7A4C4A0121D154FB7A0133FB72FB7A8A
:102970006B2BECD915E00023FB720FE0444B1B7866
:10298000002B04D1FB7A3F4A0021D15403E0FB7AAB
:102990003C4A0121D154FB7A0133FB72FB7A6B2B49
:1029A000ECD93B4B1B7883F00103DAB2384B1A7039
:1029B000364B01229A71354B1B6823F00103334AD1
:1029C000136000F026BD314B1B6803F00103002BA0
:1029D00000F021852D4B5B79DBB2012B20D1002348
:1029E000FB7219E02A4B1B78002B09D1FB7A294A8C
:1029F0000021D154FB7A0133264A0121D15408E049
:102A0000FB7A244A0121D154FB7A0133214A002167
:102A1000D154FB7A0233FB72FB7A6B2BE2D91FE0B5
:102A20000023FB7219E01A4B1B78002B09D1FB7AAB
:102A3000144A0021D154FB7A0133124A0121D154A6
:102A400008E0FB7A0F4A0121D154FB7A01330D4A89
:102A50000021D154FB7A0233FB72FB7A6B2BE2D953
:102A60000B4B1B7883F00103DAB2094B1A70074B4A
:102A700001229A71054B1B6823F00103034A13607E
:102A800000F0C9BCF4040020B5050020BC050020FE
:102A9000B2050020840400209A4B1B6803F0010358
:102AA000002B00F0BA84974B5B79DBB2012B3AD153
:102AB00000237B7230E0944B1B78FB7206E0FB7ABC
:102AC000924A0121D154FB7A0133FB72FA7A8E4B80
:102AD0001B7814339A42F2DB8B4B1B781433DAB237
:102AE000894B1A70884B1B78BB7206E0BB7A874A09
:102AF0000021D154BB7A0133BB72BA7A824B1B7866
:102B000010339A42F2DB804B1B781033DAB27E4BE3
:102B10001A707B7A01337B727B7A022BCBD97A4B8A
:102B200000221A7039E000237B7230E0764B1B786C
:102B3000FB7206E0FB7A764A0021D154FB7A01331E
:102B4000FB72FA7A704B1B7814339A42F2DB6E4BAD
:102B50001B781433DAB26C4B1A706B4B1B78BB7258
:102B600006E0BB7A6A4A0121D154BB7A0133BB72B9
:102B7000BA7A654B1B7810339A42F2DB624B1B78B2
:102B80001033DAB2604B1A707B7A01337B727B7A36
:102B9000022BCBD95C4B00221A705E4B1B7883F062
:102BA0000103DAB25B4B1A70564B01229A71554BF6
:102BB0001B6823F00103534A136000F02EBC514BF5
:102BC0001B6803F00103002B00F029844D4B5B7957
:102BD000DBB2012B63D10023FB725CE04D4B1B7811
:102BE000FA7A9A422AD8FB7A1C33484A0121D154F6
:102BF000FB7A4033454A0121D154FB7AC3F11B03D0
:102C0000424A0121D154FB7AC3F13F033F4A0121DB
:102C1000D154FB7AC3F163033C4A0121D154FB7ABE
:102C2000072B05D8FB7A6433384A0121D1542FE0B1
:102C3000FB7A083B354A0121D15429E0FB7A1C3349
:102C4000324A0021D154FB7A4033304A0021D1541A
:102C5000FB7AC3F11B032D4A0021D154FB7AC3F147
:102C60003F032A4A0021D154FB7AC3F16303274A68
:102C70000021D154FB7A072B05D8FB7A6433234A11
:102C80000021D15404E0FB7A083B204A0021D154B2
:102C9000FB7A0133FB72FB7A112B9FD96CE0002386
:102CA000FB7266E01B4B1B78FA7A9A4234D8FB7AA7
:102CB0001C33174A0121D154FB7A4033144A0121B5
:102CC000D154FB7AC3F11B03114A0121D154FB7A81
:102CD000C3F13F030E4A0121D154FB7AC3F16303D0
:102CE0000B4A0121D154FB7A072B05D8FB7A6433B8
:102CF000074A0121D15439E0FB7A083B044A0121FB
:102D0000D15433E0BC050020B3050020840400202A
:102D1000F4040020B2050020FB7A1C339B4A0021FA
:102D2000D154FB7A4033994A0021D154FB7AC3F144
:102D30001B03964A0021D154FB7AC3F13F03934A07
:102D40000021D154FB7AC3F16303904A0021D1548E
:102D5000FB7A072B05D8FB7A64338C4A0021D154C7
:102D600004E0FB7A083B894A0021D154FB7A013305
:102D7000FB72FB7A112B95D9854B1B78112B06D84A
:102D8000834B1B780133DAB2814B1A7002E0804B1F
:102D900000221A707F4B01229A717E4B1B6823F030
:102DA00001037C4A13603AE37A4B1B6803F001038A
:102DB000002B00F03683774B5B79DBB2012B47D1D8
:102DC000754B1B78002B07D1744B1B78002B03D15C
:102DD000724B14221A7014E0704B1A786E4B1A70F2
:102DE0006B4B1B78012B06D16B4B1B781033DAB27F
:102DF0006A4B1A7005E0684B1B781433DAB2674BE4
:102E00001A700023FB7215E0634B1B78FA7A9A4222
:102E100009D3624B1B78FA7A9A4204D2FB7A604A51
:102E20000121D15403E0FB7A5D4A0021D154FB7AA1
:102E30000133FB72FB7A6B2BE6D9584B1B78642B62
:102E40004DD9564B00221A70534B00221A7046E09F
:102E5000514B1B78002B07D1504B1B78002B03D113
:102E60004E4B14221A7014E04C4B1A784A4B1A70CD
:102E7000474B1B78012B06D1474B1B781033DAB236
:102E8000464B1A7005E0444B1B781433DAB2434BBF
:102E90001A700023FB7215E03F4B1B78FA7A9A42B6
:102EA00009D33E4B1B78FA7A9A4204D2FB7A374A0E
:102EB0000121D15403E0FB7A344A0021D154FB7A3A
:102EC0000133FB72FB7A6B2BE6D9344B1B78642BF6
:102ED00005D9324B00221A702F4B00221A702C4B4E
:102EE0001B7883F00103DAB2294B1A70294B0122B7
:102EF0009A71284B1B6823F00103264A136090E265
:102F0000244B1B6803F00103002B00F08C82214B43
:102F10005B79DBB2012B69D11D4B1B78012B15D8D6
:102F20001B4B0A221A701D4B1A781B4B1A701B4B35
:102F30001A78174B1B781344DAB2184B1A70144BDB
:102F40001B780133DAB2124B1A701CE0104B0822C6
:102F50001A70124B1A78104B1A70104B1A780C4BCF
:102F60001B781344DAB20D4B1A70094B1B78022BF5
:102F700006D8074B1B780133DAB2054B1A7002E012
:102F8000034B00221A700023FB7221E0F40400209E
:102F9000B2050020BC050020B3050020B4050020C8
:102FA000840400209E4B1B78FA7A9A4209D39D4BE9
:102FB0001B78FA7A9A4204D2FB7A9B4A0121D154B7
:102FC00003E0FB7A984A0021D154FB7A0133FB726B
:102FD000FB7A6B2BE6D9934B1B78692B63D9904B0B
:102FE00000221A708F4B00221A705CE08F4B1B7806
:102FF000012B15D88D4B0A221A708A4B1A78884BF0
:103000001A70884B1A78894B1B781344DAB2854BB7
:103010001A70864B1B780133DAB2844B1A701CE0AD
:10302000824B08221A707F4B1A787D4B1A707D4BA9
:103030001A787E4B1B781344DAB27A4B1A707B4BAA
:103040001B78022B06D8794B1B780133DAB2774B09
:103050001A7002E0754B00221A700023FB7215E013
:103060006F4B1B78FA7A9A4209D36E4B1B78FA7A27
:103070009A4204D2FB7A6E4A0121D15403E0FB7AD2
:103080006B4A0021D154FB7A0133FB72FB7A6B2B24
:10309000E6D9644B1B78692B05D9614B00221A7065
:1030A000604B00221A70634B01229A71614B1B68BE
:1030B00023F001035F4A1360B5E15E4B1B6803F028
:1030C0000103002B00F0B1815A4B5B79DBB2012B7D
:1030D0004ED1564B1B78012B0ED0022B16D0002B55
:1030E00000D01DE04E4B0A221A704E4B2D221A7052
:1030F0004E4B01221A7013E0494B2E221A70494B95
:1031000051221A70494B02221A7009E0444B522294
:103110001A70444B6C221A70444B00221A7000BF84
:103120000023FB7220E03E4B1B78FA7A9A4209D3C7
:103130003C4B1B78FA7A9A4204D2FB7A3A4A012134
:10314000D15403E0FB7A384A0021D154374B1B7825
:10315000002B06D1FB7A092B03D8FB7A324A0121D6
:10316000D154FB7A0133FB72FB7A6B2BDBD94DE038
:103170002E4B1B78012B0ED0022B16D0002B00D02B
:103180001DE0274B0A221A70264B2D221A70274B5E
:1031900001221A7013E0224B2E221A70214B512269
:1031A0001A70224B02221A7009E01D4B52221A702B
:1031B0001C4B6C221A701D4B00221A7000BF00239A
:1031C000FB7220E0164B1B78FA7A9A4209D3154B12
:1031D0001B78FA7A9A4204D2FB7A154A0121D1541B
:1031E00003E0FB7A124A0021D154104B1B78002BCC
:1031F00006D1FB7A092B03D8FB7A0D4A0121D15461
:10320000FB7A0133FB72FB7A6B2BDBD9094B012272
:103210009A71084B1B6823F00103064A136004E10E
:10322000B3050020B405002084040020B20500206E
:10323000F4040020BC0500209F4B1B6803F0010331
:10324000002B00F0F4809C4B5B79DBB2012B17D193
:103250000023FB7210E0994B1B78FA7A9A4204D152
:10326000FB7A974A0021D15403E0FB7A944A01216A
:10327000D154FB7A0133FB72FB7A6B2BEBD916E04E
:103280000023FB7210E08D4B1B78FA7A9A4204D12E
:10329000FB7A8C4A0021D15403E0FB7A894A012150
:1032A000D154FB7A0133FB72FB7A6B2BEBD9834B46
:1032B0001B786A2B06D8814B1B780133DAB27F4B1F
:1032C0001A7002E07D4B00221A707B4B01229A712A
:1032D000794B1B6823F00103774A1360A7E0764B14
:1032E0001B6803F00103002B00F0A380724B5B7995
:1032F000DBB2012B27D10023FB7220E06F4B1B7840
:10330000FA7A9A4214D86D4B1B781A46FB7AD21A75
:10331000FB7A6D49895C6A4AD154684B1B781A461E
:10332000FB7AD21AFB7A6849895C664AD15403E079
:10333000FB7A634A0021D154FB7A0133FB72FB7A9A
:103340006B2BDBD926E00023FB7220E05B4B1B7864
:10335000FA7A9A4214D8594B1B781A46FB7AD21A39
:10336000FB7A5949895C564AD154544B1B781A460A
:10337000FB7AD21AFB7A5449895C524AD15403E051
:10338000FB7A4F4A0021D154FB7A0133FB72FB7A5E
:103390006B2BDBD9494B1B786A2B06D8474B1B7824
:1033A0000133DAB2454B1A7021E0484B1B78642B8D
:1033B00017D9464B00221A70404B00221A70002386
:1033C000BB720AE0BB7A3E4A0021D154BB7A3D4A27
:1033D0000021D154BB7A0133BB72BB7A6B2BF1D97C
:1033E00005E03A4B1B780133DAB2384B1A70324B96
:1033F00001229A71304B1B6823F001032E4A13609F
:1034000017E000BF16E000BF14E000BF12E000BFED
:1034100010E000BF0EE000BF0CE000BF0AE000BFFC
:1034200008E000BF06E000BF04E000BF02E000BF0C
:1034300000E000BF204B1B6803F48073002B3EF4B8
:103440003BAE0123FB720CE0214B1A88FB7A20492A
:1034500031F8133013449AB21D4B1A80FB7A0133B2
:10346000FB72FB7A072BEFD9194B1B88DB089AB24A
:10347000174B1A80164B1A88164B1A80144B1B8850
:1034800040F67902934208D80B4B1B6843F4007353
:10349000094A1360FEF710FC05E0074B1B6823F494
:1034A0000073054A1360044B1B6823F48073024ABF
:1034B0001360FEF701BE00BFBC050020B20500206E
:1034C00084040020F40400200C360008B30500201A
:1034D00094050020AC050020024B13B1024800F017
:1034E00005B8704700000000F934000800230146C9
:1034F0001A46184600F01EB838B50A4C0A4D641B2F
:10350000A4100AD004F18043013B05EB8305013C84
:1035100055F804399847002CF9D1BDE8384000F03F
:103520006FB800BF6804002064040020704700BF2B
:10353000704700BF2DE9F8432B4D06462868984692
:103540000F469146FFF7F2FF284B1C68D4F848312C
:10355000002B3DD05A681F2A0DDC02F1010C16BB6E
:103560000232C3F804C0286843F82270FFF7E0FF76
:103570000020BDE8F8831E4B7BB34FF4C870AFF357
:103580000080034648B30020D4F848114FF0010CE6
:10359000C3E900100246C4F84831C3F88801C3F8F3
:1035A0008C01002EDCD0012103EB8204C4F888904A
:1035B000D3F8880191400843022EC3F88801C4F86B
:1035C0000881CDD1D3F88C010143C3F88C11C7E732
:1035D00004F5A673C4F84831BCE72868FFF7A8FFD4
:1035E0004FF0FF30C5E700BF580400207C360008CC
:1035F00000000000F8B500BFF8BC08BC9E4670474C
:10360000F8B500BFF8BC08BC9E4670470100010039
:1036100001000000010000000101010001000000A4
:103620000101010001000100000000000000010193
:103630000100010000000100010001010100000083
:103640000101010001000100000001000000010073
:103650000100010000000000000000000000000068
:10366000000000000000000000000000000000005A
:1036700000000000000000000000000030000020FA
:1036800000A24A0400000000000000000102030440
:1036900006070809000000000102030401020304F8
:1036A00006070809020406080F380100010000009F
:1036B000000000001C03002084030020EC03002015
:1036C00000000000000000000000000000000000FA
:1036D00000000000000000000000000000000000EA
:1036E00000000000000000000000000000000000DA
:1036F00000000000000000000000000000000000CA
:1037000000000000000000000000000000000000B9
:1037100000000000000000000000000000000000A9
:103720000000000000000000000000000000000099
:103730000000000000000000000000000000000089
:103740000000000000000000000000000000000079
:103750000000000000000000010000000000000068
:103760000E33CDAB34126DE6ECDE05000B0000002D
:103770000000000000000000000000000000000049
:103780000000000000000000000000000000000039
:103790000000000000000000000000000000000029
:1037A0000000000000000000000000000000000019
:103AD0000000000000000000D0050020D9340008DC
:083AE000310100080D0100088E
:0400000508000000EF
:00000001FF
